S00D000054696D65722E7372656316
S11300000C9434000C9451000C9451000C94510045
S11300100C9451000C9451000C9451000C94510018
S11300200C9451000C9451000C9451000C948F01C9
S11300300C9451000C9451000C9451000C945100F8
S11300400C9451000C9451000C9451000C945100E8
S11300500C9451000C9451000C9451000C945100D8
S11300600C9451000C94510011241FBECFEFD8E022
S1130070DEBFCDBF11E0A0E0B1E0E8E3F6E002C0EE
S113008005900D92AC30B107D9F721E0ACE0B1E0B6
S113009001C01D92A031B207E1F70E942E020C9418
S11300A01A030C940000882324F495B1986095B940
S11300B003C095B1977F95B986FF04C095B194604C
S11300C095B903C095B19B7F95B985FF04C095B1DF
S11300D0926095B903C095B19D7F95B984FF04C022
S11300E095B1916095B903C095B19E7F95B995B1CD
S11300F09F7E95B995B1906295B900C095B19F7DE9
S113010095B900C083FF04C095B1986095B903C048
S113011095B1977F95B982FF04C095B1946095B964
S113012003C095B19B7F95B981FF04C095B19260DE
S113013095B903C095B19D7F95B980FF04C085B181
S1130140816085B903C085B18E7F85B985B18F7E05
S113015085B985B1806285B900C085B18F7D85B9C7
S113016000C00895882324F495B1986095B903C01C
S113017095B1977F95B986FF04C095B1946095B900
S113018003C095B19B7F95B985FF04C095B192607A
S113019095B903C095B19D7F95B984FF04C095B10D
S11301A0916095B903C095B19E7F95B995B190635F
S11301B095B900C095B19F7D95B900C083FF04C077
S11301C095B1986095B903C095B1977F95B982FFB1
S11301D004C095B1946095B903C095B19B7F95B95E
S11301E081FF04C095B1926095B903C095B19D7F1C
S11301F095B980FF04C085B1816085B903C085B11C
S11302008E7F85B985B1806385B900C085B18F7D46
S113021085B900C0089584B1806384B984B18F60C6
S113022084B900C081E00E94530082E00E94530020
S113023088E20E94530086E00E9453008CE00E94F2
S1130240530080E80E9453000895CF93DF93EC019C
S113025009C00E94B200219683EF91E00197F1F763
S113026000C0000088818111F4CFDF91CF910895FF
S1130270CF93DF93CDB7DEB7C456D1090FB6F89448
S1130280DEBF0FBECDBFDC01CB014AE0BE016F5F14
S11302907F4F0E94E502CE0101960E942501CC59B0
S11302A0DF4F0FB6F894DEBF0FBECDBFDF91CF9105
S11302B00895CF93DF93D82F613051F028F0623046
S11302C061F0633071F007C080E80E94530003C0FE
S11302D080EC0E945300C0E00CC084E90E945300EB
S11302E0FACF84ED0E945300F6CF84E10E945300BC
S11302F0CF5FCD17D0F3DF91CF910895109289008D
S11303008CE080938800E1E8F0E080818A6080835B
S1130310EFE6F0E0808182608083789408951F92F4
S11303200F920FB60F9211248F939F93AF93BF93A5
S113033080910C0190910D01A0910E01B0910F01DB
S11303400196A11DB11D80930C0190930D01A09302
S11303500E01B0930F01499908C010920C0110923C
S11303600D0110920E0110920F01BF91AF919F9158
S11303708F910F900FBE0F901F901895F89421E065
S113038009C060910C0170910D0180910E01909152
S11303900F0120E02111F5CF7894089581E00E94A7
S11303A0530083EF91E00197F1F700C0000080E86B
S11303B00E94530008950E94CE0100C060E080E0D6
S11303C00E94590180E091E00E94250161E080E0F3
S11303D00E94590160E070E0CB010E94380161E0A5
S11303E081E00E94590160E070E0CB010E94380175
S11303F061E082E00E94590160E070E0CB010E945C
S1130400380161E083E00E94590160E070E0CB01B3
S11304100E94380161E084E00E9459018AE091E081
S11304200E94250161E085E00E94590160E070E0CE
S1130430CB010E94380161E086E00E94590160E02E
S113044070E0CB010E94380161E087E00E9459010D
S113045060E070E0CB010E94380108950E940B0116
S11304600E947E010E94DB018AB18E7F8AB9789452
S1130470489966C00E94BE014B015C0120E63AEE39
S113048040E050E00E94A902722E032F142FD52FB2
S1130490A0E6BAEE0E94CB0275016401C61AD70A1F
S11304A0E80AF90AC0E01DC061E087E08C1B0E94E5
S11304B0590187E090E08C1B9109049729F48AE0A4
S11304C091E00E9425010CC0C701B6012AE030E08A
S11304D040E050E00E94A90269017A010E943801BB
S11304E0CF5FC63008F361E081E00E945901672DB7
S11304F0702F812F9D2F2AE030E040E050E00E94D1
S1130500A9020E94380161E080E00E945901C501FE
S1130510B40120EC37E249E050E00E94A902CA018C
S1130520B9010E9438010E94BE0161327F4B8240B2
S1130530910530F00E94CE0100C00E94DB01F894C6
S1130540499905C00E94CE0100C00E94DB01789445
S11305508FCFA1E21A2EAA1BBB1BFD010DC0AA1F3F
S1130560BB1FEE1FFF1FA217B307E407F50720F018
S1130570A21BB30BE40BF50B661F771F881F991F93
S11305801A9469F760957095809590959B01AC01DC
S1130590BD01CF0108950E94D602A59F900DB49F7E
S11305A0900DA49F800D911D11240895A29FB00168
S11305B0B39FC001A39F700D811D1124911DB29F93
S11305C0700D811D1124911D0895BB274A3031F40B
S11305D0992322F4BDE2909581959F4F0C94F102EA
S11305E0BB27FB015527AA27880F991FAA1FA41709
S11305F010F0A41B83955051B9F7A05DAA3308F0FD
S1130600A95DA193009779F7B111B1931192CB0130
S11306100C940A03DC01FC01672F71917723E1F745
S1130620329704C07C916D9370836291AE17BF07BB
S10B0630C8F30895F894FFCF0C
S10F063853746F705761746368002E00E7
S9030000FC
